:020000040800F2
:1000000028040020D9000008ED0B0008310B00087F
:1000100000000000000000000000000000000000E0
:10002000000000000000000000000000F10B0008CC
:100030000000000000000000EF0B0008F30B0008B8
:10004000EB000008EB000008EB000008EB000008E4
:10005000EB000008EB000008EB000008EB000008D4
:10006000EB000008EB000008EB000008EB000008C4
:10007000EB000008EB00000800000000EB000008A7
:1000800000000000EB00000800000000000000007D
:10009000EB00000800000000EB000008EB00000887
:1000A000EB000008EB000008EB000008EB00000884
:1000B000EB000008EB000008EB000008EB00000874
:1000C0000448854600F090F800480047390D0008C4
:1000D000C046C04628040020044880470448004722
:1000E000FEE7FEE7FEE7FEE7FEE7FEE7710C00082D
:1000F000C100000830B50B46014600202022012433
:1001000009E00D46D5409D4205D31D469540491B4B
:100110002546954040191546521E002DF1DC30BD94
:10012000F0B51FB40646002082B005464024019178
:1001300000901BE0019922460F46304600F042F83D
:10014000049A059B801A994110D3104619462246FD
:1001500000F028F8361A8F4101972246012000212D
:10016000009F00F01FF838184D4100902046641E93
:100170000028DFDC019B00982946324607B0F0BD1D
:10018000D2B201E00270401C491EFBD2704700222F
:10019000F6E710B513460A4604461946FFF7F0FF86
:1001A000204610BD10B5202A04DB0146203A9140BC
:1001B000002010BD914020239C1A0346E3401943C0
:1001C000904010BD10B5202A04DB0846203AD040EC
:1001D000002110BD0B46D340D0402024A21A9140EC
:1001E0000843194610BD0000064C0125064E05E0E7
:1001F000E36807CC2B430C3C98471034B442F7D348
:10020000FFF762FF7C0E00089C0E000870B50446E4
:1002100000F0D0F80546601C02D00448007824188D
:1002200000F0C8F8401BA042FAD370BD14000020B3
:10023000FCB500230124A2E027462A469F403A400D
:100240006FD04D68012D05D0022D03D0112D01D0A6
:10025000122D16D185680326AC465D00AE46AE4031
:100260006546B543AC46CE687546AE4065462E43FE
:10027000866046680D79BE43ED06ED0F9D4035431F
:100280004560C6685F000325BD40AE46AE433546B7
:100290008E68BE402E43C6604E68022E01D0122EDC
:1002A00014D1DE08B60036180196366A5D07B446EA
:1002B000EE0E0F25B54000966646AE43B4460D6976
:1002C000009EB54066462E43019D2E620668754627
:1002D000AE430D79AD07AD0FBD40354305604D68A8
:1002E000ED004BD5294D6E6B26436E639E08284D5D
:1002F000B6007519AC46AD689E07360F0F27B7409C
:10030000BD4305273F07B84201D1002715E0214F23
:10031000B84201D1012710E01F4FB84202D1022795
:100320000BE02BE01D4FB84201D1032705E01C4F25
:10033000B84201D1052700E00627B7402F436546A4
:10034000AF60184D2E684F689643FF0300D51643E3
:100350002E606E684F689643BF0300D516436E60EB
:10036000AE684F689643FF0200D51643AE60EE6854
:100370004F689643BF0200D51643EE605B1C0A68C7
:100380001546DA4000D057E7FCBD000000100240DF
:10039000000001400004005000080050000C005014
:1003A000001C005000040140002A01D08161704708
:1003B0008162704701488068704700001400002087
:1003C0000248816802788918816070471400002013
:1003D00010B50848002401684022114301602046FE
:1003E00000F00AF8002801D0012401E000F026F80E
:1003F000204610BD0020024070B504460D4D7D2002
:100400002978C000FFF776FE01460B480068FFF729
:1004100071FE00F075FB002809D1042C07D20022E0
:100420002146401E00F016F800206C6070BD0120CF
:1004300070BD000014000020200000200448416B23
:10044000012211434163816B0204114381637047B0
:100450000010024010B500F025FC10BDF8B50E46A6
:10046000050038D05E480068C007C00FB04214D203
:100470005B4C20684008400030432060FFF79AFF43
:10048000074605E0FFF796FFC11B564881427AD820
:100490002068C007C00FB042F4D12878524C8007C2
:1004A00005D5E068F0218843A9680843E060287812
:1004B000C00752D06868022806D0032807D02168F8
:1004C00001280AD0890504E02168890301E0216838
:1004D0008901002903DB0120F8BD4907F9E7E1683C
:1004E000890889000143E160FFF764FF07466868F7
:1004F00002280AD0032814D001281ED029E0FFF7D3
:1005000059FFC11B374881423DD8E0680007800F82
:100510000228F4D121E0FFF74DFFC11B3148814291
:1005200031D8E0680007800F0328F4D115E0FFF709
:1005300041FFC11B2B48814225D8E0680007800F8E
:100540000128F4D109E0FFF735FFC11B254881429E
:1005500019D8E0680007800FF5D121480168C90764
:10056000C90FB14217D901684908490031430160F8
:10057000FFF720FF074608E005E0FFF71BFFC11B60
:100580001848814201D90320F8BD15480068C0070A
:10059000C00FB042F1D12878400706D5E0680721A6
:1005A00009028843E9680843E0602878000707D516
:1005B000E0680721C90288432969C9000843E0604F
:1005C00000F01AF8E168094A0906090F515CC840B1
:1005D0000749086007480068FFF70EFFF8BD0000F4
:1005E000002002408813000000100240620E000844
:1005F000200000201800002070B51A4AD3681A495C
:100600000C2018408D0004280CD04E00082810D073
:100610000C2810D050680004410F0120C003491C71
:10062000884070BD1068C00601D5084670BD2846D8
:1006300070BD304670BD98020C4C000F205C1B0250
:100640009C0FD368641CDB0301D5314603E01268BC
:10065000D20600D4294600F00CFB22460023FFF707
:100660005FFD70BD0010024000093D00720E0008E1
:10067000FEB505007ED0FE4CE7680C20E66807401A
:100680000120000406402878C00747D0082F05D075
:100690000C2F0AD101200004864206D12068800375
:1006A0003CD568680028E5D038E00120696800047E
:1006B000814203D121680143216011E00523012219
:1006C0001B0492049942216802D111432160F1E791
:1006D000814321602168014000912068904320609F
:1006E000686800280DD0FFF765FE009005E0FFF771
:1006F00061FE0099401A64287BD820688003F6D5F3
:100700000CE0FFF757FE009005E0FFF753FE00995D
:10071000401A6428F0D820688003F6D4287880072F
:1007200056D50923E868042F0DD00C2F01D1002ED7
:1007300009D000283CD02168994301432160FFF78C
:1007400039FE064628E02168490701D5002891D0E6
:1007500061681F22120291432A69120211436160EB
:100760002168994301432160FFF746FFE1680906CC
:100770000A0F00E0BFE1BF49895CC840BE4908607C
:10078000BE480068FFF738FE002873D120E0FFF76D
:1007900011FE801B0228AFD820684007F7D560689B
:1007A0001F210902884329690902084360600FE09C
:1007B0002068400840002060FFF7FCFD064604E08A
:1007C000FFF7F8FD801B022896D820684007F7D471
:1007D0002878C00660D5002F0CD0E86900284AD0E0
:1007E0002068FF21013108432060FFF7E3FD064642
:1007F0002EE0E5E02068800502D5E8690028A6D053
:100800006068072149038843696A0843606060683B
:10081000298C0002000A090608436060686A410BDF
:100820000120C003491C8840E16809060A0F91496C
:10083000895CC8409049086090480068FFF7DCFD7B
:10084000002817D128E0FFF7B5FD801B0228A2D8A9
:1008500020688005F7D56068072149038843696AE5
:10086000084360606068298C0002000A090608439A
:10087000606011E025E12168FF20013081432160A3
:10088000FFF798FD064604E0FFF794FD801B022861
:100890009AD820688005F7D42878794E000724D5A7
:1008A00068690028306910D0012108433061FFF7E2
:1008B00081FD009005E0FFF77DFD0099401A0228B8
:1008C0007ED830698007F6D50FE0400840003061DF
:1008D000FFF770FD009005E0FFF76CFD0099401AEE
:1008E00002286DD830698007F6D42878400764D58F
:1008F00000200290A06BC00006D4A06B0121090764
:100900000843A063012002905E480168C90511D424
:100910000168821511430160FFF74CFD009005E06E
:10092000FFF748FD0099401A642849D855480068E7
:10093000C005F5D5FF20AA680130824203D1316994
:100940000143316111E001218902002A07D005230A
:100950001B029A4203D132690A433261EFE73269DE
:1009600082433261306988433061A86800280ED024
:10097000FFF720FD009006E0FFF71CFD0099411AEB
:10098000414881421CD830698005F5D50DE0FFF75C
:1009900011FD009006E0FFF70DFD0099411A3A485D
:1009A00081420DD830698005F5D40298002804D022
:1009B000A16B012000078143A1632878800600E035
:1009C0007EE02ED53148A9694314002916D0A268CB
:1009D00001210A43A260626B0A436263016A194300
:1009E0000162FFF7E7FC064604E0FFF7E3FC801B2B
:1009F000022865D8A0688007F7D512E0A1684908E9
:100A00004900A160016A99430162FFF7D3FC0646E1
:100A100004E0FFF7CFFC801B022851D8A0688007B4
:100A2000F7D4A86A002868D00C2F4FD001263606CC
:100A30000228206805D0B0432060FFF7BBFC0546C4
:100A400040E0B0432060FFF7B5FC074604E0FFF745
:100A5000B1FCC01B022833D820688001F7D4296B71
:100A6000E86AE2680843696BFD231B049A430FE0C0
:100A700000100240620E0008200000201800002034
:100A80004010024000700040881300000000014048
:100A900011430843E060206830432060FFF78AFC80
:100AA000054604E0FFF786FC401B022808D82068B2
:100AB0008001F7D521E0FFF77DFC401B022801D91A
:100AC0000320FEBD20688001F5D416E00128F8D08F
:100AD000E06801210904EA6A014091420BD10F212B
:100AE00089042A6B0140914205D103218905084000
:100AF000696B884201D00120FEBD0020FEBD0000D0
:100B0000094910B5401E884201D9012010BD074C8B
:100B100060610321081F00F0C5F80020A0610720D4
:100B20002061002010BD0000FFFFFF0000E000E09A
:100B3000FEE70000154C00222188A068FFF734FC76
:100B400001226188E068FFF72FFC0022A18820695C
:100B5000FFF72AFC012000F0E7F8C820FFF756FB5A
:100B6000002000F0E1F8012000F072F9002000F010
:100B70001BF900F0C8F8002000F024F9002000F074
:100B800067F9034800F026F9FEE7000000000020A6
:100B9000FF03000030B587B014216846FFF7F7FA6D
:100BA0001048C26A80210A43C262C26A0A400592A2
:100BB000C16A02242143C162C06A0B4D20400590E6
:100BC000002238212846FFF7EFFB38200090012053
:100BD000019000200290694603942846FFF728FB05
:100BE00007B030BD0010024000040050FEE770471F
:100BF000704710B5FFF7E4FB10BD000010B594B0CE
:100C000038216846FFF7C3FA14210EA8FFF7BFFA90
:100C1000164801680322D2029143C2148918016068
:100C20000220009001210A90039140040C900001E1
:100C3000102100240D900B9404916846FFF718FDD5
:100C4000002801D072B6FEE70F200E9003200F900F
:100C500010941194012112940EA8FFF7FFFB0028B5
:100C600001D072B6FEE714B010BD00000070004065
:100C70007047F8B5040C8BB2264682B25E430D0C69
:100C80001046370C58433604801900217941164626
:100C90006E43370C36048019794126466E43891914
:100CA000F8BD00008307FF22DB0E9A408907090E7A
:100CB0009940002808DB830809489B001B18186826
:100CC00090430843186070470007000F08388308F6
:100CD00004489B001B18D86990430843D8617047AB
:100CE00000E400E000ED00E002E008C8121F08C1C7
:100CF000002AFAD170477047002001E001C1121F9D
:100D0000002AFBD1704710B5002400F02DF8200216
:100D1000FF30013080B200F075F800F02FF8641C4D
:100D2000E4B2082CF1D310BD0F2110B50902401810
:100D300000F050F810BD0000FFF74AFBFFF75EFF20
:100D4000FFF728FF074C0821204600F035F8202146
:100D5000204600F023F81021204600F019F8FFF794
:100D6000E9FEFEE70004005010B503480022418868
:100D7000C068FFF719FB10BD0000002010B5034844
:100D800001224188C068FFF70FFB10BD0000002062
:100D9000014A10619180704700000020014AD06034
:100DA0005180704700000020092110B50902401849
:100DB00000F010F810BD0000014A906011807047EB
:100DC00000000020052110B54902401800F002F88B
:100DD00010BD000070B50546FFF7C6FF084B0022A6
:100DE0005988D868FFF7E0FA0024284600F00AF88E
:100DF000641CE4B2022CF8D3FFF7C0FF70BD000002
:100E00000000002070B5114C06460025F00B01D003
:100E1000012200E000222188A068FFF7C5FA012224
:100E2000A1882069FFF7C0FA0022A1882069FFF796
:100E3000BBFA70046D1C060CEDB2102DE6D3002237
:100E40002188A068FFF7B0FA70BD00000000002004
:100E500001214840032110B589024018FFF7BAFF6D
:100E600010BD00000000000000000102030406079E
:100E70000809030406080C10182030009C0E000816
:100E80000000002024000000E80C0008C00E00084C
:100E90002400002004040000F80C000800000000FA
:100EA0000000000000000000000000000000000042
:100EB000010000000400000000000000000020000D
:04000005080000C12E
:00000001FF
